:020000040800F2
:10000000D893002051D700088D4102088F41020883
:10001000914102089341020895410208C576020801
:1000200000000000000000000000000097410208EE
:1000300099410208000000009B4102089D4102080E
:10004000C9760208CD760208A1410208D1760208DD
:10005000D5760208D9760208DD760208E176020834
:10006000E5760208B5410208E9760208ED76020855
:10007000F1760208F5760208F9760208FD760208A4
:100080000177020805770208097702080D77020850
:100090001177020815770208197702081D77020800
:1000A0002177020825770208297702082D770208B0
:1000B00031770208D5410208DB4102083577020892
:1000C000397702083D770208417702084577020830
:1000D000497702084D7702085177020855770208E0
:1000E000597702085D770208617702086577020890
:1000F000697702086D770208E1410208717702080A
:1001000075770208797702087D770208E7410208CF
:100110008177020885770208897702088D770208BF
:100120009177020895770208997702089D7702086F
:10013000A177020819420208A5770208A9770208E8
:10014000AD770208B1770208FB41020815420208A8
:10015000B5770208B9770208BD770208C1770208AF
:100160002DE9FE4FDFF8587AF9780025002601299D
:1001700008BF032002D0009008B90620B9E010F0B3
:100180000F0F18BF0720F9D1DFF8380A00884FF6A3
:10019000FF72904208D0010006D08002410B022974
:1001A00009D300F1006001E04FF00160009901F512
:1001B0008041884201D208209BE0DFF80C0A00F061
:1001C0000BFD00281CBF03280C20F5D1EFF3108095
:1001D000029072B600980FF2D131396100F1784087
:1001E0000190282107F1180000F014FDDFF8DC89E8
:1001F00098F8010098F8001001FB00F2022901D3E1
:10020000032901D30D2071E008B1032A01D30E2088
:100210006CE007F11800C8F80400A9461FE014308C
:1002200013E000F068F80028FBD0D8F80C0050B1BB
:1002300098F800301421D8F804204B43D118A1F1CC
:100240001404A042EBD1D8F80400C8F8080098F8CC
:1002500001006D1CADB206EB403609F1010998F8BA
:1002600000105FFA89F088423DD21420009C684358
:100270003419002107EB000ACAF81840DDF804B071
:10028000204600F044FBB3440028CAD0204600F0CA
:1002900089FB20B900F02FF80028FBD0C5E7D8F87B
:1002A0000C4024B90AF11800C8F80C00BDE720463C
:1002B0000168DAF8182052784978914204D2521A2B
:1002C000FF2A18BF0AF11800C8F80C00A042E1D0BC
:1002D000206898F8011000F17840400B00F0CBFB4B
:1002E0000028F5D0A1E70120F8700020029981F3E1
:1002F0001088BDE8FE8F98F801104FEA5B30BAE332
:10030000F0B59500DFF8B8780F35FB782D09860831
:1003100010242D010BB90220F0BD3B79012B01D136
:100320000420F0BD08B10F20F0BD09B91120F0BDC7
:1003300011F0030001D01220F0BD32B3DFF88C3889
:1003400003EB8613186A00281CBF986A002807D0A0
:10035000186B00281CBF986B002801D00920F0BD45
:10036000002603EBC607386A58B1786A80000F3060
:10037000000905EB00155878400305F11007B84255
:1003800003D3761C042EECD301E01320F0BDEFF371
:10039000108572B619625A62002103EBC102106A1D
:1003A00058B19868066800EB8100A6194660526A49
:1003B00092000F32120904EB0214491C0429ECD3F9
:1003C00085F310880020F0BD2DE9F041DFF8F047FB
:1003D000E178820800F0030309B9022041E02179A5
:1003E000012908BF04203CD008B10F2039E0DFF814
:1003F000DC0700EB821505EBC306306A08B9102054
:100400002FE0E86808B90A202BE0EFF3108772B6F6
:1004100001202071D5F80C801146D8F8000000F0BA
:1004200076FA20B1D8F8000000F0BCFA08B90B2029
:1004300013E0E96809680879002802BF706AB1F81A
:10044000052090420FD11021E868726A0368306A73
:100450009200C91800F020FC00200021217187F3D0
:100460001088BDE8F081C879002802BF706A0A8947
:10047000904207D1B1F8051089000F31090909012F
:100480001031E1E7887A002802BF706AB1F80B20CA
:1004900090420CD1B1F805000989890080000F3124
:1004A0000F3009090009090101EB0011E8E7487B59
:1004B000002802BF706ACA89904213D10A89B1F834
:1004C0000500B1F80B10920080000F320F301209B6
:1004D0000009120102EB001089000F31090900EB3D
:1004E0000111CDE71420B8E7F8B5DFF8D446E2787B
:1004F000830800F003070AB90220F2BD08B10F20FB
:10050000F2BDDFF8C80600EB831505EBC706306ABD
:1005100008B91020F2BDEFF3108272B6D4F814C0FF
:10052000012000FA03F646EA0C0CC4F814C095F852
:1005300002E0B84040EA0E00A87005EB87000161B8
:1005400082F31088207968BB00F0DDF901210022D8
:10055000217123706770A270A9780901A97080F3D6
:100560001088184600F0A4FA02281BD1EFF3108778
:1005700072B661690020207121EA06066661A870E2
:100580000321204600F094FB00200021C2B2401C51
:1005900005EB8203C4B21961042CF7D387F31088EA
:1005A0001520F2BD0020F2BD2DE9F041DFF8105614
:1005B000A9780126DFF8144603294CD8DFE811F0AA
:1005C000040061000C0158012A78002804EB821312
:1005D000DFF8FC45996809684ED154F8202051F89D
:1005E00020309A4203D1401C0428F6D317E000F0D3
:1005F0008AF92C460321A17080F310882378DFF854
:10060000CC05451C9B01E95C0830C35804F1080285
:10061000186800F17840400B00F090FB1AE000F001
:1006200072F92C460022A670627180F31088277838
:100630006578DFF89815BF01C8190831CF5900EB6C
:10064000C500426A3F1D57F82510006A04F10803EF
:1006500000F03AFB022840F054812078012100F09C
:100660007DFA00F077FA207862690023864022EA5A
:1006700006066661237142E105F108030422204663
:10068000A7E0002840F0978000F064FA6A796B7860
:10069000D8B2032834BF5B1C00232878DFB2521C79
:1006A00004EB801606EBC706306A10B9D0B20428F6
:1006B000EED36A716B7081F310882978687901260E
:1006C000890104280CD260180834615800EBC70077
:1006D000426A0C1D54F82710006A05F1080378E0FF
:1006E00004F108004158086800F05CF978B900F09E
:1006F0000AF90321A97080F310882878611C04F19D
:1007000008038001095C185805F108024CE000F06C
:1007100021FA2B789B01E218D06828649068D06099
:10072000201D92F800E050F803C0142000FB0EFEDC
:1007300097680CEB0E001438874203D1271DF85838
:10074000906003E0906800F1140393600023D76881
:1007500007F1040C5CF8230090B1D2F808C03846C9
:1007600000F1040E5EF8238000680CF10407DCF849
:1007700000C0A8EB000020F00300604447F823000D
:100780005B1C042BE3D381F31088286C80B100F04C
:10079000BAF80221A97080F310882978601C05F14D
:1007A00008028901415C286C006800F1784093E000
:1007B0002878002115E0287805F1080304EB801162
:1007C0006C7801EBC4008968426A006A0F1D57F813
:1007D000241000F079FA82E02B78002841D1002122
:1007E000184600F0BBF92A78A11C9201885C48B930
:1007F00000F089F82A78696906FA02F29143696182
:1008000080F310886869002826D0002120FA01F2C0
:10081000D20704D4491CCBB2202BF7D316E0EFF358
:10082000108272B60020A87000270B06A01C9B0C3B
:10083000C05C06FA07F3184204D17F1CF8B2042802
:10084000F3D300E06F70297082F31088287800F0ED
:100850002FF9022827D144E000F055F80021297132
:100860002DE004EB831005F108024178286C30E09C
:10087000002827D100F06EF9A8700022A01C2B7868
:1008800006FA02F79B01C35C3B4204D1521CD3B26F
:10089000042BF4D300E06A7081F31088287800F00C
:1008A00007F902281DD000F02EF82978A21CA31CFD
:1008B0008901525C42EA021202F0F0025A5480F3BB
:1008C00010881EE0287805F1080204EB80104178BA
:1008D00080680068A0F50050400B00F02FFA022855
:1008E0000FD12878012100F039F900F033F9287888
:1008F0006A690023864022EA06066E612B7181F345
:100900001088BDE8F081EFF3108072B67047F0B543
:1009100003780022FF2B04BF4378FF2B1DD14488AE
:100920004FF6FF739C4204BF0579FF2D15D1B0F837
:1009300005409C4204BFC579FF2D0ED104899C421D
:1009400004BF857AFF2D08D1B0F80B409C4201BF4F
:10095000457BFF2DC4899C4222D09C4B03EB811721
:10096000B0F805600389B0F80B407D789E19C38903
:10097000A619ED029E19B54212D30379B3EB810F8C
:1009800002BFC479641EB4EB810F09D1837A9B1E28
:10099000B3EB810F01BF407BC01EB0EB810F012282
:1009A0001046F0BD2DE9FC4704460025009504F1F2
:1009B000100800270026DFF81092B4F80520002A5E
:1009C0003CD06B464146484600F0D4FA30B9B4F802
:1009D0000570BF000F373F093F012FE00228ECD020
:1009E00000F022FCE9E7022818BF00F01DFC228974
:1009F000002A23D000F03AF80028F4D1208918E02A
:100A0000022818BF00F010FCB4F80B20B2B100F0BF
:100A10002DF80028F4D1B4F80B000AE0022818BF22
:100A200000F002FCE2894AB100F020F80028F5D17C
:100A3000E08980000F30000907EB0017761C07EBF8
:100A4000080A042E0AD2032EFBD8DFE806F00605BA
:100A50000403F6E7E6E7D7E7C9E7AEE70098618861
:100A6000884208BF01252846BDE8F6876B465146F7
:100A7000484600F0DBBB2DE9F04180460D460027DB
:100A8000002495B16E1E00F041FC00E0761CAE42E1
:100A900005D206EB080000F0DBFC0400F6D000F005
:100AA00045FCAE4201D304B901273846BDE8F081C8
:100AB0002DE9FC4104460020454E00210022002380
:100AC000009086E80F004148002500EB8417DFF80E
:100AD000F88006E000F04EFA88B1022818BF00F056
:100AE000A3FB07EBC501086A48B100984A6A6B4648
:100AF0000028096A4046EDD000F098FBECE76D1C39
:100B0000042DEED300F026F8F86818B1006842789A
:100B1000521C72700098A20032717080786AA40032
:100B2000621CA6F80500F271F86AA21CB27230814C
:100B3000786BE41C7473A6F80B00F86BF08181F3FA
:100B40001088B868234B04220168304600F0BCF8D6
:100B5000BDE8F681EFF3108172B670472DE9F843D6
:100B60000C461A49002501EB8016012721E0291DBA
:100B700007FA01F810EA080F19D007FA05F1084240
:100B800015D106EB8509D9F8101041B120468847E8
:100B9000FFF7B9FE0021C9F8101080F31088FFF7A5
:100BA000B2FEB17821EA0801B17080F310886D1CA3
:100BB000EDB2B07808B1042DD9D3BDE8F1830000BF
:100BC000407E0020A007F90BEC2F002038300020D9
:100BD00020830020487E002038B5040008BF062589
:100BE00013D0207A012808BF03250ED000F06AFC3C
:100BF00005000AD10648816A0123491C2160A269C7
:100C000023726260816200F05FFC284632BD00BF43
:100C1000C02F0020002200F059BCF0B4024610683A
:100C200095681318506803EB5004C00748BF4D4443
:100C3000A3422DD013F8016B16F0030004BF13F884
:100C4000010BC01C31090F2907D113F8011B0F310B
:100C500003E013F8017B05F8017B401EF9D1002960
:100C6000E6D013F8010BC6F38106032E08BF13F874
:100C7000016B00EB0620404228440026B71E8F423D
:100C80001EBF10F8017B05F8017B761CF6D1CFE77B
:100C9000F0BC02F10C0070474AB1000011F8013BB2
:100CA000521E00F8013B1CBF11F8013BF8E77047EA
:100CB000002200F019BC28B10068401AB0FA80F098
:100CC0004009704700207047F8B50D4604461646A7
:100CD000B5F1006F20D3A54909884FF6FF774FF093
:100CE0000162B94217BF00299446880200F1006CE6
:100CF000AC4511D3B94201D00F0001D1114602E039
:100D0000890201F100617019814205D314F00300DA
:100D100008BF15F00F0101D00220F2BD184600F007
:100D2000E3F8070008D1924800218460C56006619D
:100D30000171417100F018FD3846F2BD70B50546ED
:100D40008A4800880C464FF6FF71884201D00300A4
:100D500001D1802301E083025B0BAB420BD38842BD
:100D600001D0010001D1802001E08002400B611917
:100D7000884200D30CB9022070BD104600F0B4F8D0
:100D8000060008D17A480121002245618461017181
:100D9000427100F0E9FC304670BDF8B50024744D96
:100DA00069790027009428790FF2B51611B101294D
:100DB00037D064E0D8B940F24C4000F084F807E046
:100DC000A968E86800F02DFB040001D100F080F86C
:100DD0002869002801DD002CF2D000F0A7FA28696C
:100DE00000284EDD286A314600F0EEFCF1BD41F2EC
:100DF000040000F068F8002009E0686900F028FBB2
:100E000028B9A969491EA9616969491C6961A9696B
:100E100009B10028F1D000F089FAA8690028E1D1D1
:100E20002FE0A97821B9286A314600F0CDFCD9E736
:100E300088B900F06BFA01E000F04AF82869002850
:100E400005DDA968E86800F0ECFA0028F4D028690C
:100E500000280FDC0DE000F059FA686900F0F8FA9C
:100E600028B9A869401EA8616869401C6861A86922
:100E700000B9012700F05AFA00F0EBFCAC70002F2B
:100E8000B0D0EFF3108072B60021002229706A7092
:100E900080F31088E96959B10020884708E0694665
:100EA00005F1240000F03AFD009A0120916888477E
:100EB00005F1240000F009FD002897D12978687811
:100EC0000143ECD0F1BD01212862697100F01EBA26
:100ED000E86800F11001A868E96000F110012869D4
:100EE000A960001F2861704770B50446EFF31086B3
:100EF00072B61F4DE97829B905F1240000F0E2FC33
:100F00000122EA7029786878014304D10121012087
:100F10002970687000E0002086F3108858B9002C12
:100F20001CBFA068002804D0214605F1240000F071
:100F3000DFFC012070BD002C1CBFA068002805D07C
:100F4000EFF3108072B6A168E96104E0EFF310805E
:100F500072B60022EA6180F31088002070BD0000A4
:100F600001200349887000F0FFBB0000A007F90BC7
:100F7000748000202DE9F8430400884691461E46FF
:100F800018BFB8F1000F00D00EB9062522E0207A74
:100F900008B904251EE0114F2068B96A814200D3C8
:100FA00008B9052516E000F08DFA054690B9786A73
:100FB0002168884203D0204600F0CCFC38B94A466C
:100FC0004146384600F066FD3060606000E007256D
:100FD00000F07AFA2846BDE8F28300BFC02F002057
:100FE00080B500F0CBFD00F09DFA00F01AF800F09B
:100FF00063F800220521432000F0E4FD432000F0C7
:1010000009FE00F0E9F800F06BF800F095F800F048
:101010009FF800F082F8002000F093FA00F04DFBFA
:10102000FCE780B598B0402108A8FFF741FE2021D9
:101030006846FFF73DFE022000F084FE002000F02D
:1010400057FE08B100F0F0F84FF480314FF48012F1
:1010500009910A924FF4807110220B200C910D928D
:1010600008904FF0005100220E910F92109208A8A4
:1010700000F0D2FE08B100F0D7F802210191002261
:101080003F20029200210090039140220591069199
:10109000079104920121684601F007F908B100F0B8
:1010A000C3F8012000F0EEFD0E2001F02DFA08B18A
:1010B00000F0BAF819B000BD80B592B0482168467A
:1010C000FFF7F6FD4FF400424FF40021009211911A
:1010D000684601F063FA08B100F0A6F813B000BD4D
:1010E00080B549480168002241F0010101600068B3
:1010F000062100F001000090009B1D2000F062FD21
:101100001D2000F087FD002205211E2000F05AFD61
:101110001E20BDE8024000F07DBD3C48016821F47E
:10112000807101603A48026822F00402026001689E
:1011300041F001010160704780B5364836490160D1
:1011400001F072FB00B100E001BDBDE801406BE0C1
:1011500030B593B01C216846FFF7AAFD302107A8DF
:10116000FFF7A6FD2D4C2E4820604FF080401F2138
:101170000022E0614FF48075A16022616261A2618A
:1011800022626562204601F075FB08B100F04CF860
:10119000002000900390049005906946204601F0DD
:1011A00060FD08B100F040F8204601F030FD08B1C4
:1011B00000F03AF800204FF07C510E9008900C900F
:1011C0000D911295012207A9204601F0A3FB08B159
:1011D00000F02AF813B030BD81B01248026842F026
:1011E00002020260016801F00201009100990268A8
:1011F00042F001020260006800F0010000900098D7
:1012000001B0704700000000880C02460408024646
:10121000000403404083002000600240148000204E
:10122000007800468C0C024672B6FEE72DE9F843C2
:101230000400884691461E4618BFB8F1000F00D042
:101240000EB906252BE0207A08B9042527E0154FB2
:101250002068B96A814200D308B905251FE000F073
:1012600031F90546D8B9786A2168884205D14A46DD
:101270004146384600F0F1FB0BE0204600F06AFBE7
:1012800050B9606839684A4608614146384600F0FE
:1012900001FC3060606000E0072500F015F9284689
:1012A000BDE8F283C02F0020F8B500F021F801D18D
:1012B0000220F2BD00F023F8010016D124F0004016
:1012C0000128BC603146284602D100F061F801E0F7
:1012D00000F065F84FF47A7000F033F839490A6885
:1012E00024F0004422EA04040C6000213970F2BDAD
:1012F0000446354F38780D461646012870470120C0
:101300003870002179604FF47A701AE030490A6A27
:101310000020002A00D4704710B52E4A0A602E4CD7
:101320000C60096A002948BF012010BD25490A68E0
:10133000012042F000420A600968002948BF0020ED
:10134000704770B5054601F0AFFC06461F4C20689B
:1013500010F4403F09D015F1010FF8D001F0A4FCC2
:10136000801BA842F3D3032070BD216842F2FA002B
:10137000084006D014494A6802434A6020600120B0
:1013800070BD2068C10744BF01202060002070BDEF
:1013900010B50C4A136800F021F8042207E010B5DC
:1013A000084A136843F4804300F018F8202251F8EB
:1013B000044B521E40F8044BF9D183F3108810BD42
:1013C0000000000028200240B482002020200240BB
:1013D0000820024023016745AB89EFCD43F00103AC
:1013E0001360EFF3108372B67047FA009600640042
:1013F0004B0032001E00140010B5EFF3108272B6DD
:10140000012303FA00F02D4B21B1012906D11968FF
:10141000084302E01C6824EA0000186082F3108888
:1014200010BD0A46254938B50B6801249D0704D52F
:101430000B685D0701D5012032BD0B68DD07FCD4C8
:1014400001460120FFF730FF00B90024204632BDDD
:1014500038B584B01A490A8801244FF6FF718A42D0
:1014600001D0130001D1802201E09202520B82428E
:1014700006D3124A13689D0704D513685D0701D58A
:10148000012019E01368DD07FCD4022201920C4D03
:101490002A888A4201D0110001D17F2202E0920203
:1014A000520B521E104002900394694601A801F0AD
:1014B00001FC00B90024204605B030BD988300200F
:1014C000A007F90B00207047002070474018491C06
:1014D0001CBFB1F1010100F8012DF9D17047600086
:1014E0000600F000F000600000B500BF1300964653
:1014F0009446103928BFA0E80C50FAD85FEA417C26
:1015000028BF0CC048BF40F8042BC90728BF20F8EB
:10151000022B48BF00F8012B00BD30000600A000E0
:10152000A000300080B5002200926946002001F042
:101530001FFC002812BF0C200098807B01F054F99A
:1015400001BD38B5002001F029FC8E4CA06E8E4DF7
:1015500040F40000A06601F023FC8C4801F048FD37
:1015600001F08AFD0120287001F0D0FE2168884832
:10157000CA0715D4236843F001032360216801F0F2
:10158000010100910099C26822F07C42C2600168AA
:1015900041F07C410160206840084000206007E085
:1015A000C16821F07C41C160026842F07C42026067
:1015B000216878488A0715D4236843F00203236022
:1015C000216801F0020100910099C26822F4707252
:1015D000C260016841F470710160206820F002006F
:1015E000206007E0C16821F47071C160026842F4B4
:1015F0007072026002F022FA6748016841F480517B
:101600000160026842F020020260016841F400714A
:101610000160026822F02002026002F08DFA281DAB
:1016200002F0B6FA08B1FFF7FFFD5C4A0021202066
:1016300002F033FD102002F0C6FE02F083FE02F03D
:1016400026FE574A0021012002F027FD554A0021BD
:101650004FF4807002F021FD01210120FFF7CCFE44
:1016600000210220FFF7C8FE00210020FFF7C4FE82
:1016700002F0C1FE4C4A0021402002F00EFD4B4911
:1016800009884FF6FF72914201D0080001D1484805
:1016900003E0C908474800EB4130FEF761FD08B19F
:1016A000FFF7C2FD02F03EFF01210220FFF7A4FE7A
:1016B000002001F074FB002032BD4FF0FF3002F03B
:1016C00037BC80B503F01AFC02F063F9002002F089
:1016D000F1F9BDE8014003F019BC80B50121364A9B
:1016E0001160294B187828B102F0CEF9022808BF02
:1016F00003F014FC3148016841F40001016001BDB0
:1017000080B52F48016841F001010160006800F0D8
:1017100001000090009803F050FC00210420BDE877
:10172000044002F0DEB90021402002F0C4BC0021D8
:10173000012002F0C0BC0FF21D0101600FF21D027A
:101740000FF221034260836070470021202002F0E5
:10175000B2BC0000890003F0ADBC0000800003F0C3
:101760004DBC000003F08FBC00214FF4807002F0EC
:10177000A2BC00E000BF1348016821F48071016041
:10178000704700008C0C0246982F0020400000306B
:10179000000002420004024200080246EF3E000838
:1017A000FF4200089B0D0008AD7D0008A007F90B63
:1017B00000C00F0800C0FF0738080246F40C0246BC
:1017C000980C0246000C024638B5002292B00B007D
:1017D0003AD0EFF3108372B6394C2578012D0EBF45
:1017E00001220125257083F310886ABB0023616004
:1017F000CDE90223CDE9062309928DF82C200BA90F
:1018000005224A700FF29D028A6000220A61CDE92A
:10181000043308900A934B60CB604FF47A71002533
:10182000B0FBF1F100950FF2650304F10C0001F03B
:10183000BDFA02A803F082FCA06038B9EFF3108073
:1018400072B6257080F31088012000E0002013B0EC
:1018500030BD38B51A4C04F10C0001F013FBA06840
:1018600003F0C4FC00280CBF0025022500F009F895
:10187000EFF3108072B60021217080F310882846A3
:1018800032BD01210120FFF7B7BD000080B5FFF791
:10189000F8FFEFF3108072B60021094A117080F34F
:1018A000108801BD10B50021FFF7ECFF044C04F1D6
:1018B0000C0001F094FA60688047002010BD000021
:1018C000A4810020006040607047EFF3108172B681
:1018D000026882420CBF012000201CE0EFF310825E
:1018E00072B603680B60486001600868416029E0D7
:1018F000EFF3108272B6086043684B60416048683D
:1019000001601FE0EFF3108172B642680368136054
:1019100002684368536081F31088704710B5EFF395
:10192000108472B602680A600168FFE70846FFF794
:10193000E9FF84F3108810BDEFF3108272B60368DC
:10194000FFE70B6082F310887047D0048901D00450
:101950007801890170B50446134D687F20B128468F
:1019600000F062F806001DD16069E860617B697172
:10197000207B28712169A960A0692861E1696961FA
:10198000206AA861616A2846296200F00FF8060003
:1019900002D12068686205E01821281DFFF788F948
:1019A00000202862304670BDC02F002010B5040012
:1019B00020D0607F20B900212177204603F05FFC12
:1019C00002216177207970B9206816494161206849
:1019D000816821F018018160607968B920684FF052
:1019E000FF3101610BE0E268A168204603F0A4FC2E
:1019F0000028F1D0012010BD20692168086121680C
:101A00008A68606922F0600202438A6021688A68FD
:101A1000A06922F0800202438A60012161770020E0
:101A200010BD0000B71DC10410B5040001D1012094
:101A300010BD607F02280FD0022060772068816887
:101A400041F001018160216800204860204603F0D8
:101A500027FC00206077207710BD38B502230446AC
:101A60006377256A0020012D10D012D3032D08D0F2
:101A70003CBF204600F066F80BE051F82050401CB7
:101A80001D6023689042F8D3186802E0204600F0F9
:101A900025F820E038B50223044663772368002048
:101AA0009D6845F001059D60236A012B10D012D37B
:101AB000032B08D03CBF204600F044F80BE051F85F
:101AC0002050401C1D6023689042F8D3186802E043
:101AD000204600F003F80121617732BD70B5002384
:101AE0000CE0667825785B1C360446EA0566A57826
:101AF000E47846EA0526056826432E6001EB830458
:101B0000B3EB920FEDD312F0030218D0012A03D1E8
:101B100021780268117012E0022A06D121786278D9
:101B200042EA012201680A8009E0032A07D12278EB
:101B30006378016843EA02230B80A2780A70006888
:101B4000006870BDF0B5002308E001EB830631F8B2
:101B5000235077885B1C47EA054727600468B3EB8E
:101B6000520FF2D3D00744BF31F8231021802068F0
:101B7000F0BD0000280018007A017A0180B50B48FA
:101B8000016841F480710160032000F011F803F056
:101B900005FC042000F076F80E2000F0B5FC08B13A
:101BA000012002BD03F04EFB002002BD00200240D8
:101BB00047490A6860F30A2240F2FA5060F31F4274
:101BC0000A60704770B5424B1C68C4F302230124BD
:101BD000C3F10705052D2EBF0F2504FA05F56D1E6F
:101BE0001E1D072E34BF0023DB1E2940994004FA36
:101BF00003F35B1E1A4011430901020002D4354869
:101C0000815470BD344B02F00F021A4402F8041CD8
:101C100070BD0000010007D4012200F01F018A40BE
:101C20002E4B400943F82020704701000BD40122BD
:101C300000F01F018A402A4B400943F82020BFF3DF
:101C40004F8FBFF36F8F7047401EB0F1807F07D278
:101C50002449486000228A600B6843F003030B604C
:101C6000B0F1807F8041C043C00F7047010007D4AE
:101C7000012200F01F018A401B4B400943F820203D
:101C8000704700001949174A042820D8DFE800F0FF
:101C90000810161F0300116841F00401116070471D
:101CA000106820F0040010600A6822F440020DE081
:101CB000106820F004001060012004E01368022086
:101CC00023F0040313600A6860F397520A607047B8
:101CD0000CED00E000E400E018ED00E000E100E0C1
:101CE00080E100E010E000E000E200E0E00C0246ED
:101CF00010B5DFF81021116B01F4803181421DD045
:101D00001168DFF8044121F4803108431060236832
:101D10003220DFF8F8104343B3FBF1F0401C0146DA
:101D200001E069B1491E13681C04FAD541B101E014
:101D300030B1401E116B0B04FAD508B1002010BD64
:101D4000032010BD10B5DFF8C04022683221DFF853
:101D5000BC304A43B2FBF3F1DFF8B420491C002841
:101D600010680AD120F002001060506B83070DD577
:101D7000002918BF491EF8D10BE040F002001060A6
:101D800001E031B1491E506B8307FAD509B100203B
:101D900010BD032010BD10B502460020CB431D4CE2
:101DA00032B1012A0AD0022A0ED0072A13D015E038
:101DB0000A0413D0090C090410D111E00A040DD053
:101DC000090C09040AD10FE011F4604F06D031F478
:101DD000604103D10CE0082900D10DE0012010BDC5
:101DE00021680B40236010BDA1680B40A36010BDAB
:101DF00021690B40236110BDA16B21F00801A16393
:101E000010BD00000C080246B030002040420F0018
:101E100008080246540802462DE9F84F040044D051
:101E2000DFF8A476D7F81C90D7F828A0207809F01E
:101E30000C090AF00305C1072AD5B9F1080F04D02F
:101E4000B9F10C0F08BF032D51D1606800282CD0C8
:101E5000B9F1080F1CD13968A068012221F488115A
:101E6000014341F4803139603868DFF87816DFF8D3
:101E70007036000D00F001008240B1FBF2F1DFF896
:101E80005C261160186800F03FFB002840F0CA8112
:101E90002078810712D5B9F1000F04D0B9F10C0FE9
:101EA00008BF022D46D12069002800F0BB813869A7
:101EB000616920F4F81040EA014038612078DFF8C9
:101EC0002886DFF82856010740F1AF8000F0D9F9E5
:101ED00051D400F0CEF90646D8F80000C1074AD424
:101EE00000F0E2FE801B0328F6D3032071E1606856
:101EF00088B13A68A16822F488121043084300F0C0
:101F0000B5F9064638688103C2D400F0CDFE801BC7
:101F10006528F7D3E9E7386820F4881000F0A6F9BF
:101F2000064638688103B3D500F0BEFE801B6528E5
:101F3000F7D3DAE7206978B1396841F48071396004
:101F400000F0B2FE054638684105B0D400F0ACFEA2
:101F5000401B0328F7D3C8E7386820F4807000F0EE
:101F600085F9054638684105A8D500F09DFE401B5F
:101F70000328F7D3B9E7EE6DA069002843D04101EB
:101F80001AD5E06906F08051884211D030010FD592
:101F900026F08066EE6500F087FE8346E86D01015D
:101FA00006D500F081FEA0EB0B001528F6D39CE7C8
:101FB00026F08050E6690643A0690643EE6500F00E
:101FC00073FE0090B346A669E86D10EA460F06D18D
:101FD00000F06AFE0099401A1528F4D385E786F0D0
:101FE00010562BEA060BC5F85CB000F05DFE834688
:101FF000E86D10EA460F16D000F056FEA0EB0B007D
:102000001528F5D371E726F01056EE6500F04CFE6A
:102010000646E86D10F0904F05D000F045FE801B9D
:102020001528F6D361E700F019F921784A075BD546
:1020300000F027F90CD400F01CF90646D8F800008F
:10204000C10705D400F030FE801B0328F6D34CE70F
:10205000E06841F2893828B3E96D21F08001084336
:10206000E86500F021FE0646E86D810705D400F022
:102070001BFE801B4045F7D337E7207B010608D5C0
:10208000E86D01052ED400F00FFE801B4045F7D30C
:102090002BE7E86D010525D500F006FE801B4045C5
:1020A000F7D322E7E86D20F08100E865E86D20F0C5
:1020B0000400E86500F0F8FD0646E86D810705D5E7
:1020C00000F0F2FD801B4045F7D30EE7E86D0106F6
:1020D00008D5E86D010505D500F0E6FD801B4045FB
:1020E000F7D302E700F0BAF8206A002870D0B9F1FF
:1020F0000C0F70D00228386820F08070386056D1FC
:1021000000F0D2FD0546D7F800A000F0CDFD401B41
:102110000328E6D25FEA8A10F5D4616A032907D161
:102120004FEA1A52DFF8BC0302F00102D04001E08E
:10213000DFF8A403A36ADFF8B823B0FBF3F0904202
:102140002CBF0C220022D7F82890DFF8A8035B1ED2
:1021500000EA090001430A4342EA032242F48022D2
:10216000BA62E06A216B401E491E40EA4120616B61
:10217000491E40EA0140A16B491E40EA01607863B4
:10218000E06B28B1C000B863B86A40F01000B862D4
:10219000386840F0807000F069F8044638688101C2
:1021A00016D400F081FD001B0328F7D39DE600F054
:1021B0007BFD04463868810105D500F075FD001BE4
:1021C0000328F7D391E6B96ADFF82C030140B9621E
:1021D0000020BDE8F28F012824D0B86A796B636AC9
:1021E00000F003029A4201BFC0F30220401CA26A21
:1021F000904217D1E26AC1F30800401C904201BF2F
:10220000C1F34620401C226B90420BD1626BC1F39C
:102210000640401C904201BFC1F30660401CA16B08
:10222000884201D00120D4E7B86BE16BC0F3CC0049
:102230008142CDD0B86A20F01000B86200F034FDC1
:10224000054600F031FD401BFBD0E16B3846C9006C
:102250008163816A41F010018162B9E7BAF1000F30
:1022600003D0286820F0040028607047386000F030
:102270001BBDD8F8000040F00100C8F8000000F0D5
:1022800013BD28684FF0000A41070AD42A684FF0AE
:10229000010A42F004022A60286800F0040000905D
:1022A0000099D8F80000C10770472DE9F0410400FB
:1022B000884637D0DFF84462306800F00F004045B0
:1022C00009D23168090948EA01113160306800F02B
:1022D0000F00404526D12178880609D5DFF8F42182
:1022E0001368A069E16923F0170303430B431360EC
:1022F0002078DFF8D471C10742D5386861680329B6
:102300000CD180016BD5F96901F00C010C290CD0BE
:10231000B96A012060F31551B96206E0022902D1C1
:10232000800302D45BE0420559D5F96960688908E9
:1023300040EA8101F96100F0B7FC05466068F9697F
:1023400001F00C01B1EB800F08D000F0ADFC401B98
:1023500041F289318842F1D3032052E003280FD1A2
:10236000B86A20F48010B86200F09EFC0546B86A96
:10237000410205D400F098FC401B0B28F7D3EBE793
:10238000396A22680020930704D5C908C800A168EB
:1023900001430120530704D521F07000E168014397
:1023A0000120120705D5206921F4E06141EA0011FE
:1023B00000E000B139622078C10644BF60697862EC
:1023C000316801F00F0188450BD23068000948EAF6
:1023D00000103060316801F00F01414501D001204B
:1023E0000FE000F010F83A6A45493C4B02F0070252
:1023F000895CC84018603A480068BDE8F04100F0C8
:1024000083B8BDE8F0813049C86910F00C0001D1F3
:1024100031487047082818BF00F010B809683148E3
:10242000090D01F00101C840704710EE100A491C67
:10243000B0FBF1F010BD3348046807E010B5FFF7BA
:10244000FAFFBCEEC00AC4F30661EEE71E48416B1A
:10245000C1F30801491C00EE101A816AB8EE400A67
:10246000C1F30222521C00EE902AF8EE600ACA065E
:1024700043BF826BC2F3CC0201EE102A9FED111A0A
:1024800001F00301B8EE411A022902D0032903D05A
:102490000DE0DFED0E1A0CE000681249000D00F0AF
:1024A0000100C14001EE901AF8EE611A01E0DFED83
:1024B000051AC1EEA00ADFED061A01EE210A20EE90
:1024C000800A704700000000000C02460024744B94
:1024D00000000039000E02460024F400B030002055
:1024E000AC3000200048E80128080246940C02465F
:1024F00001127A00E0F8FFFFFCFFF8FF0020024025
:1025000084540008340C0246F8B504461F4D287860
:10251000002100282ED01E4A12681E4B1E68770725
:1025200002D54FF47A710DE01B4B1B6813F4400386
:1025300006D0B3F5800F08D0B3F5000F0ED015E02C
:102540004FF4FA51B1FBF0F00EE04FF47A72B2FBA7
:10255000F0F24FF4FA43B3FBF2F107E04FF47A7173
:10256000B1FBF0F04FF40042B2FBF0F10846FFF788
:102570006BFB08B10120F2BD002221464FF0FF3075
:10258000FFF720FBAC600020F2BD00BFA4300020AC
:10259000B030002010E000E0E00C02462DE9F843E6
:1025A00006463078DFF86852C20705D5296870689A
:1025B000890840EA810129603178880705D52968B2
:1025C000B06821F00C01014329603178480705D536
:1025D0002968F06821F440610143296031780807D7
:1025E00005D52968306921F44021014329603178FB
:1025F000C80605D52968706921F440110143296096
:102600003178880605D52968B06921F44001014375
:1026100029603178480605D52968F06921F0004124
:10262000014329603178DFF8EC71080611D569683B
:10263000306A21F0E00101436960306A18B93868F6
:1026400040F4803004E0202803D1386840F40030A2
:1026500038603168C8050DD56968706A21F4405149
:1026600001436960716AB1F5405F03D1386840F495
:10267000003038603168880212D56968B06A21F08C
:10268000804101436960B06A18B9386840F480300D
:1026900005E0B0F1804F03D1386840F40030386075
:1026A0003168880505D5A968F06A890840EA810182
:1026B000A9603168480505D5A968306B21F018017B
:1026C0000143A9603168080505D5A968706B21F040
:1026D000C0010143A9603168C80405D5A968B06B81
:1026E00021F440610143A960316888040DD5A968CF
:1026F000F06B21F4E0410143A960F16BB1F5005F9B
:1027000003D1386840F4803038603168480457D5C8
:10271000D5F81080306C002408F4407880454FD004
:10272000F96E480709D4F96E012441F00401F966F5
:10273000F86E00F0040000900098DFF8DC50286884
:1027400040F00100286000F0AFFA81462868C10718
:1027500007D400F0A9FAA0EB09000228F6D903205B
:1027600040E0DFF8AC502869B8F1000F20F4407069
:1027700009D0A9692A6942F480322A612A6922F4BF
:1027800080322A61A961316C01432961DFF88C1024
:1027900011EA00080FD000F087FA8146286910EA94
:1027A000480F08D100F080FAA0EB090041F289310E
:1027B0008842F3D3D3E71CB1F86E20F00400F8662A
:1027C000306802040DD52969706C21F44021014361
:1027D00029612969706C01F44021814218BF0120F0
:1027E00000D10020BDE8F2830D490A6822F47C1272
:1027F00042EA00420A6070470A48016841F002015B
:10280000016070470748016821F0020101607047CC
:10281000E00C0246280C024628080246010000246B
:10282000100E0246080E024610B5040001D1012028
:1028300010BD02202071204602F03CFD0020A06067
:102840000121217110BD02218160012070470A60C1
:1028500001210171002070470279012A04D102236D
:10286000037102681160F3E7EDE70068006800F4A7
:10287000E020704770B504460120002C49D004F1D7
:102880002C05697821B900202870204602F01FFD30
:1028900002216970DFF81C633068C10636D4CA2093
:1028A000B0615321B161204600F038F9010028D110
:1028B000F168DFF804030140F160F26860682169A3
:1028C0000243A0690A430243F260E168A06841EA5A
:1028D000004171603268606AA16A22F4F8520243D2
:1028E0000A433260204600F03BF9010009D1F36849
:1028F000216AE26923F060430B43616913430B4390
:10290000F360FF22B261010003D100E00020012149
:10291000697070BD2DE9F04700F041F808BF022052
:102920003BD000F082F81AD0002AF06812D141069C
:1029300058BFE370207800F045F98146607800F0D8
:1029400041F900F03EF88246387800F03BF900F09B
:102950002CF804E0410658BFE37000F037F8B8687F
:10296000B0F5807FF0680BD100F042F80CBF40F06A
:10297000006020F00060F060F06840F488500AE0E9
:1029800000F062F80CBF40F0805020F08050F06002
:10299000F06840F4085000F041F8BDE8F08700F11D
:1029A0002C052878002301287047E1784AEA0902BB
:1029B000636942EA815141EA0061206A08430343A6
:1029C0007047000240EA0949A078FBE0617820786E
:1029D000E278090241EA0041A0783B78014341EAEC
:1029E0008251206A41EA0361636901430B437047E6
:1029F00020F48850F06001213165B8F5807F04D162
:102A0000A169E0690143B16302E07363A069B06347
:102A1000606870667968F06801297047F06001208D
:102A2000687000212970002070470C460120287032
:102A3000022169705F4ED6F8008004F1240708F483
:102A40004078B8F5807F704720F40850F06002218C
:102A50003165B8F5807F04D1A169E0690143316433
:102A600002E0F363A06930646068B0667968F0687A
:102A70000129704710F82C2F012A01D1022070473C
:102A800001220270022343704C4AB1F5807F116825
:102A900007D121F488511160D36A23F00043D36237
:102AA00006E021F408511160536B23F00043536397
:102AB00001214170002202700020704770B5404D26
:102AC0002E680446F10703D50122AA6002F059FDE1
:102AD000B00704D50221A960204602F06EFD012056
:102AE00084F82D0070BD70B50446324D286820F082
:102AF0002000286000F0D8F80646286881060BD42C
:102B000000F0D2F8801B40F2E9318842F5D3286802
:102B1000810601D40320E3E7002070BDF8B500F082
:102B200043F841061AD4306840F08000306000F06D
:102B3000BBF8074603E00320032584F82D00316825
:102B400048060BD4032D09D000F0AEF8C01B40F2AC
:102B5000E9318842F3D330684106ECD52846F2BD0E
:102B600070B500F021F820F080003060F168880630
:102B700008D42046FFF7B7FFA0B1032084F82D004A
:102B800003250FE0F06820F02000F0602046FFF7FA
:102B9000AAFF18B1032084F82D000325F06840F047
:102BA0002000F060284670BD0446024E30680025C3
:102BB000704700000C780046BFFF8FFB1878004676
:102BC00054780046002101E0491C0A38C2B20A2AA2
:102BD000FAD240EA0110C0B27047262725272526E1
:102BE0000A6001214170002202700020704710F835
:102BF0002C1F012901D102207047012101700223FD
:102C00004370DFF890100A6842F02002E8E710F8FD
:102C10002C1F012901D102207047012101700223DC
:102C20004370DFF870100A6842F08002D8E710B5F0
:102C30000446DFF8640001684A0604D5402181603B
:102C4000204602F0A0FC012184F82D1010BD14488C
:102C500000EB810002607047114800EB81000068C2
:102C6000704710B50A6848680E4B02431A608C68BA
:102C7000C8688A69094B044314435C601C6808698E
:102C8000496924F0FF14044344EA014400201C6015
:102C900010BD00001878004654780046207C00469D
:102CA000007D00461C78004601484068704700BF20
:102CB000A43000202DE9F0410446DFF8A860307808
:102CC0008846012808BF022038D00120307000213A
:102CD000716000F035F801002ED12268DFF88870AD
:102CE000B260216821F00041042908D1386840F41D
:102CF000803040F00400386000F022F814E04FF01B
:102D0000FF31C8F80010656800E06D1C6268A168BA
:102D10008A18954208D2284600F016F800F010F8FC
:102D20000100F2D0C8F800503968226822F0004251
:102D300042F47E729143396000213170BDE8F08128
:102D40004FF47A70FEF7FDBA074A136807490B4043
:102D500043EAC00343F4803343F002031360704737
:102D600000000000B48200202820024005FCFEFF85
:102D700040B5084A084E00E0103A0A60D37B83420F
:102D800018BFB242F8D1834201D0012040BD0020DB
:102D900040BD0000F001F90B0000F90B70477047CF
:102DA000002091490860914B1A681047F8B504005B
:102DB00015461E4611D030000FD0069F002020601F
:102DC000084600F05CF86060002020726072A0721B
:102DD000E6602761E5726061F2BD0120F2BD2DE978
:102DE000F0410446002594B300F0C1F8002804BF68
:102DF000607A00282BD1EFF3108672B67B4F386AC9
:102E0000D4F804808047404538BF40462060012008
:102E100025726072A572DFF8D081D8F8000018B969
:102E20003869804720460AE0B86980472168401821
:102E30002060D8F8002013689842204602D200F0A3
:102E4000CAF801E000F0B4F886F3108800E001252C
:102E50002846BDE8F08110B50400084601D10120E4
:102E600010BD00F00CF86060204600F080F810B152
:102E7000204600F007F82046BDE81040AFE75B4A67
:102E8000516A0847F8B5002420B3EFF3108572B6F5
:102E9000554E32680127877213461146BAB1447203
:102EA00082420BD15069147218B1306000F06AF898
:102EB0000DE04E49C8688047346008E0814204D084
:102EC0000B4649690029F9D101E04869586185F349
:102ED000108800E001242046F2BD2DE9F8430024CB
:102EE00000260027EFF3108572B6DFF80081D8F8CE
:102EF00014008047D8F81010814688473A4A116874
:102F0000A0EB090059B30B460A68904238BFA2EB08
:102F1000000C10D34FF0000C32000CD1CA7A5B6960
:102F200081F808C081F809C0012A02BF8A7A002A04
:102F30000C460F69CE68C1F800C049690029E3D189
:102F4000DFF8A480C8F8003014B12046FFF747FF2F
:102F5000D8F8000018B1017A09B900F013F885F328
:102F6000108830001CBF3846B047BDE8F1831E49C9
:102F7000096800E0496919B18142FBD1012070471D
:102F800000207047F8B50446184D286A8047012193
:102F90002172AF690646B84721683018814202D2D3
:102FA000B847361826602068A968BDE8F44008478D
:102FB00010B50D490A68536901E01A465B69516909
:102FC00031B11C6801688C42F7D35061436110BD78
:102FD0005061416110BD044A116809B100230B72B0
:102FE00041611060CEE70000AC83002080700208D1
:102FF00030B51F4B596800F0FF020325914341EAA9
:103000001021596092FAA2F19C68B1FA81F149004D
:103010008D40AC4344EA10449C60186802431A6037
:1030200030BD10B5134804684460E00748BF02F0A3
:10303000C5FAA00748BF01F05EFA600748BF01F07B
:103040005CFA200748BF02F0BAFAE00648BF01F078
:1030500056FAA00648BF02F0B3FA600648BF02F075
:10306000B0FA200603D5BDE8104002F0ABBA10BD9F
:10307000140802464408024610B502F0A4FA0400FF
:1030800009D106480021064A4160C260016002F091
:103090001DFB02F04BFC204610BD00BFA82E0020F7
:1030A00000100246DFF81009016841F48031016028
:1030B0007047DFF80409016841F48011016070472E
:1030C000DFF8F408016821F4801101607047DFF82F
:1030D000EC180A68920840EA820008607047DFF83E
:1030E000DC08006800F00C007047DFF8D4180A68AC
:1030F00022F0100212E0DFF8C008016821F08071B0
:1031000001607047DFF8BC08016821F01001016020
:103110007047DFF8B4180A6822F480321043086060
:103120007047DFF8A4080068C00B00F0010070478A
:1031300010B5044602F0FCFB02F006FC0020FFF78D
:10314000C6FF00BFFFF7CBFF0028FBD1FFF7AAFFA8
:1031500000F0CCFB02F0F9FB14B9FFF7B1FF01E07E
:10316000FFF7A7FF0220FFF7B2FF00BFFFF7B7FF8F
:103170000828FBD1BDE81040FEF7FCBA00B581B0CD
:103180004FF48030FFF7C5FFFFF7CBFF0028FBD0DF
:103190000020FFF7CDFF032000F078FA01B00020F7
:1031A0005DF804EBA1E7000000B581B00220FFF755
:1031B0008EFF00BFFFF793FF0828FBD1FFF79BFFAF
:1031C00001B003205DF804EB60E2DFF8EC07816AF0
:1031D00041F480218162816A41F0030181620268C9
:1031E00042F080720260016D41F04001016570475C
:1031F00038B5044660780025022803D1A06900F0A4
:1032000076F901E0FFF77EFF6168DFF8C007DFF8BD
:10321000C027B0FBF1F1914228BF0C25DFF8A417BD
:103220000A68DFF8B00722F00C0215430D600B6846
:1032300062680340521E43EA022343F003030B601B
:10324000A068E268401E521E40EA42202269521ED7
:1032500040EA02406269521E40EA0260C860DFF83C
:1032600060170A68E069D20840EAC2020A600121D8
:10327000DFF86427117331BD10B586B0142101A8A1
:10328000FDF716FDDFF85407016841F400310160D5
:103290000068DFF84C1700F40030009000980A68CE
:1032A000C2F30222C2F10700052828BF012104D27F
:1032B00001218140491E01F00101131D072B24BF8C
:1032C000D01E81400901DFF81C2711704FF4002047
:1032D000DFF8143718600021ADF8041010220292B4
:1032E0004FF4486103910022DFF8004704920592F1
:1032F00001A9204602F02AFB206820F0800020600F
:10330000216841F00801216006B010BD70B5DFF8FA
:10331000C84682B004F10C000021002200230025E1
:103320002EC02EC0DFF8C8160A68DFF8C85605F1AF
:103330000C0002F00F026260FFF797FAA060002114
:103340002970DFF88466D6F87C0440F40030C6F8B3
:103350007C04D6F87C0400F400300090009800F063
:10336000B2FAFFF789FFD6F8100400F00C000C2821
:1033700027D8DFE800F007262626262626261F2641
:1033800026262A0001202070D6F8F41341F480117B
:10339000C6F8F413D6F8F40540F01000C6F8F405AA
:1033A00000F048F8306820F480303060207802B0B7
:1033B000287170BDD6F8F403C00254BF022001206A
:1033C0002070207802B0287170BD03202070D6F8DC
:1033D0001C04C0F30220401C2061D6F82804C0F36E
:1033E0000800401C6061D6F82804C0F34620401C49
:1033F000A061D6F82804C0F30640401CE061D6F86E
:103400002804C0F30660401C2062D6F82C04C0F3E8
:10341000CC006062D6F8F40500F00700A062606A94
:10342000022818BF0120607301202073207802B0A9
:10343000287170BD30B581B00F2002F0C3FADFF8FB
:103440008845D4F8F403DFF8AC5540F48030C4F874
:10345000F403287AF8B1297801291CD1D4F8101482
:10346000022060F30101C4F8101400BFD4F8100466
:1034700000F00C000828F9D1032000F007F9FEF74E
:1034800079F9DFF854050178032908BFFFF79DFE9D
:1034900001F084FF25E0022000F0F8F8DFF838059D
:1034A0000178012903D0206840F480302060287A18
:1034B00010B100F073F914E00920FEF7B6FBD4F860
:1034C000440440F01000C4F84404D4F8F40380032A
:1034D00004D51021C4F84C1400F044FA0920FEF77A
:1034E00099FB01B00F20BDE8304002F06CBADFF864
:1034F000D4140A6822F010020A600B696FF3CF033C
:1035000043EAC0030B61086840F01000086001F056
:1035100045BF000070B5EFF31184102282F31288CA
:10352000DFF8D024131D19541079002100B1014691
:103530005079884238BF08469179814238BF0146A8
:10354000DFF88454D5F810340846DFF88C6413F0A3
:103550000C0F44D13070012906D1286820F4803046
:10356000286084F3118870BD296841F48031296096
:103570001078002800F08780D5F8440420F010006F
:10358000C5F8440428680004FCD500F0AFF9D5F86C
:10359000F40320F48010C5F8F403D5F810140220C9
:1035A00060F30101C5F81014D5F8100400F00C0008
:1035B0000828F9D1032000F069F8D5F8F40520F0C7
:1035C0001000C5F8F405FEF7D5F83078032808BFD9
:1035D000FFF7FBFD01F0E2FE84F3118870BD317846
:1035E000814250D03070102002F0ECF93078012880
:1035F0002CD045D3032801D00BD341E0D5F8F403F8
:10360000C00203D5FFF7BAFD01F0C8FEFFF7DDFDEC
:1036100036E0D5F8F403C00202D5FFF7AFFD2DE088
:10362000D5F8100400F00C000C2802D1FFF7BCFD07
:1036300024E0D5F8F40320F08070C5F8F403D5F841
:10364000440420F04000C5F8440419E0D5F8100403
:1036500000F00C000C2808BFFFF7A6FDD5F8F40514
:1036600040F01000C5F8F405022000F00FF801202A
:10367000FFF75EFD286820F48030286001F08EFEA0
:10368000102002F0A0F984F3118870BD042800D93D
:10369000704730B581B0DFE800F0031B3757710089
:1036A000DFF84C030268032161F303020260036840
:1036B00003F00F03032BFAD1CE4C4FF4803104F109
:1036C0000C00FFF7C9F84FF4803104F1180016E040
:1036D000C749C14C0A686068120940EA02120A60D0
:1036E00060680A6802F00F028242FAD1A168C14DF7
:1036F00005F10C00FFF7B0F8A16805F1180001B062
:10370000BDE83040FFF7A8B8B9480268012161F36D
:1037100003020260036803F00F03012BFAD1B54CDA
:103720004FF4803104F10C00FFF796F84FF480312C
:1037300004F11800FFF790F8A74801214FF48032F8
:103740004160826001B030BDA948016809090901E2
:103750000160026812F00F0FFBD1A64C002104F1AA
:103760000C00FFF779F8002104F11800FFF774F856
:10377000994800214160816001B030BD9C480268D9
:10378000032161F303020260036803F00F03032BBC
:10379000FAD103209049486001B030BD30B581B006
:1037A000112002F00FF9884CD4F8100410F00C0F1F
:1037B00044D120680004FCD5874D297802200129D6
:1037C000D4F8F41311D141F48011C4F8F413D4F8EF
:1037D000101460F30101C4F8101400BFD4F81004F1
:1037E00000F00C000828F9D11EE021F48011C4F883
:1037F000F413D4F8101460F30101C4F8101400BFDE
:10380000D4F8100400F00C000828F9D10320FFF7C9
:103810003DFF2878032808BFFFF7D7FCD4F8F4054C
:1038200020F01000C4F8F405FDF7A4FFD4F8440418
:1038300020F01000C4F8440401F0B0FD01B01120E4
:10384000BDE8304002F0BFB8634810B501785A4C6B
:10385000032911D10420FFF719FFE06940F00300AC
:10386000E061E06900F00C000C28FAD101F096FD4F
:10387000BDE8104002F0ABB8206820F080702060F6
:10388000216D21F04001216510BD5A4920B101226E
:103890000A700221012003E000220A7001210120A8
:1038A00038E64D4800B5017B81B0012904BF0C30DA
:1038B000FFF79EFCFFF7E0FC01B05DF804EBB9E513
:1038C0004C4800787047EFF3108072B60121494AE6
:1038D000117280F310887047EFF3108072B60021E8
:1038E000444A117280F31088704700004149087AF9
:1038F000002800D0704700B581B03C490868C00777
:1039000007D5CA6852085200CA60486A0028FCD12C
:1039100020E00869C00703D56FF001020A6119E0D1
:10392000254800688103FBD530496FF0010008612C
:10393000CA6852085200CA60086840F00100086076
:103940000868C007FCD5486A0028FCD1C86840F068
:103950000100C860FFF7B7FF00F01BF801B05DF889
:1039600004EB1BE72349087A90B920480168C9078E
:103970000ED46FF001020261016821F002010160C2
:10398000C26842F00102C260016841F001010160B9
:103990007047EFF3108072B614490A68520852005B
:1039A0000A600B6843F002030B60CA6852085200B9
:1039B000CA6080F310887047000C02461C0C024657
:1039C000000E0246280C02460C0802460048E80198
:1039D00001127A00FCF8FFFFA0800020A40C024630
:1039E0000CED00E033E400E004E100E000440140BD
:1039F000002002401430002000B581B0FFF763FFC3
:103A0000FFF7C7FF01B05DF804EBC7E610B5454C02
:103A1000206880476168BDE81040084710B5414CF8
:103A2000A0688047E168BDE81040084710B53D4CEC
:103A3000206980476169BDE81040084700203A4985
:103A4000002201EB8003401C5A600328F9D34FF099
:103A5000FF30C8600A704A7070470022032900D303
:103A6000704730B5EFF3108372B602E085436560AE
:103A7000521C2D4C04EB820465688A42F6D328431D
:103A8000606083F3108830BD10B50020EFF3108222
:103A900072B6254B00E0401CC1B203EB81046168A3
:103AA00011B9C1B20329F6D382F31088C0B210BD98
:103AB0000000000038B501460022EFF3108472B612
:103AC000194B00E0521C03EB8205686808B9032A11
:103AD000F8D3084615A151F82220904784F31088A6
:103AE00031BD10B500F019F811705278002A06BFE8
:103AF000C1F10201C9B200210AE010B500F00DF8D1
:103B0000517001290FBF00211178C1F10201C9B222
:103B1000FFF7A3FF84F3108810BDEFF3108472B693
:103B2000014A704754740208CC8000200D3A000806
:103B30001D3A00082D3A000880B5144801F048FFEE
:103B4000032818BF002801D1002002BD022002BDB9
:103B500038B50020ADF80000EFF31184102282F395
:103B600012880A4D0121284601F04EFF6946284679
:103B700001F06EFF0021284601F046FFBDF900006C
:103B8000283001F0DFFF84F3118831BDB82E00200A
:103B9000F8B50446DFF8907338780122012808BF91
:103BA0000C2201D00CB9022288E0206820B110F06C
:103BB000030F01D163680BB903227FE0A668E568B3
:103BC00016B10DB9042279E006EB460C4FF0000E59
:103BD00007E0634503D201E00028FAD104220EF188
:103BE000010EB6450AD2012A08D1281D50F83E0020
:103BF00015F83E1084440029EED1EFE7012A5DD18B
:103C0000002038617861B861F86138627862786064
:103C1000B860F8600025BD62FD623D637D63381DBC
:103C2000FDF789FD7A68002A1CBFB868002801D01A
:103C3000F86808B9052241E0616879612068386157
:103C40009047A068B96800EB40008847786218B9CF
:103C5000A06808B1062231E007F12800FDF732FE26
:103C600007F13000FDF72EFEA068B969386200EB5D
:103C700040004018B86100200C2119E0E66801FB03
:103C800000F27B6A16F830609E54E6681344361DD5
:103C900056F830E0401CC3F801E07B6A1344C3F8D7
:103CA00005507B6A1344D3F80120FB69D218FA61EE
:103CB0003A6A9042E2D30120387000221046F2BDE9
:103CC0002DE9FE4F164600253560DFF85C8298F836
:103CD00000400CB90D208EE00D0008BF0A20FAD07C
:103CE000691C1F460091030024D1EFF3108472B6C3
:103CF00000F083F8954216D20098D8F8081088474B
:103D000060B125F07F4140F8041B3060D8F81820DE
:103D10000020AD186D1CC8F8185008E0384600F0B7
:103D2000FBF80B2003E0384600F0F6F80A2084F395
:103D3000108860E0EFF3108972B6019604463E46A3
:103D40004FF0000A002709200AE0304600F0E4F8AE
:103D50000A2003E0304600F0DFF80B200AF1010AE8
:103D6000D8F820108A4544D2092842D10C2101FB01
:103D70000AFBD8F8241011F80B309C42EED1481DF4
:103D8000584402685944D1F801309A4203D2D1F81C
:103D9000017001687F1A00F030F8BA189542D4D249
:103DA0000098D8F8081088470028D3D0294664F333
:103DB0001F6140F8041B01990860D8F82400421DD7
:103DC00002EB0B0001684919491C0160D8F8240076
:103DD000421C52F80B10431D53F80B00814206D2CF
:103DE000D8F818002818C01B401CC8F8180000207C
:103DF000B4E789F31088BDE8FE8FD8F81420D8F80E
:103E00001800D8F81C10121A521A70472DE9FC41FC
:103E1000454D297809B90D2766E008B9022763E006
:103E200010F0030118BF07275ED129696B6901EB08
:103E3000830484422CBF8842082755D3EFF31086B1
:103E400072B650F8041C001F0C0E21F07F4101F1E6
:103E50000108E96888473CB9A8690027A0EB080079
:103E6000A8610020009035E00927002002E0A2EBC5
:103E700008011BE0296A8842F3D2092FF1D10C21F5
:103E800041436A6A535C9C4218D15318D3F8051019
:103E9000D3F80120891A002909DDAA694145E6D233
:103EA000D3F80570D3F80110D21B8918A961D3F893
:103EB00005100027A1EB0801C3F80510401CD9E745
:103EC000694605F12800FDF729FD009905F130004C
:103ED000FDF70EFD05F12800FDF7F7FC0028EFD0F7
:103EE00086F31088FDF731FC3846BDE8F6811CB535
:103EF0000D4C01E0806880470021009104F1300002
:103F0000FDF7E3FC20B9694604F13000FDF706FD3A
:103F100000980028EED113BD01001CBF0348FDF737
:103F2000E7BC704700000000C87E0020F07E002043
:103F30002DE9FF47814CA569DFF804824FF0FF3976
:103F40002840A06120694FF0010A0390E669676983
:103F5000206A02902EE00022271D231D53F832C054
:103F60000AFA01F62CEA060C47F832C053F8326020
:103F70004DF82260521C012AF0D980470020221DF2
:103F8000211D51F830305DF820100B4042F83030E0
:103F9000401C0128F4D9606A01F0D9FD2069039022
:103FA000E6696769206AA16A0290606A0AFA00F00D
:103FB0000143A1620398A2693840104251D002988F
:103FC00006424ED1002007EA020100E0401C54F8EE
:103FD00030301942FAD054F8301004EBC00358685E
:103FE00039400A40104208BFC3F804902069D4F851
:103FF00028C059686CEA010C20EA0C0012EA0001A2
:1040000018BF0A4608B94FF0000C5868C4F828C019
:10401000104000F097F86062EFF3108172B60AFA70
:1040200000F22069D24310402061022004EBC0035B
:1040300053F808CC401E02EA0C0C43F808CCF5D12A
:1040400081F31088606A01F083FD616A202904D23F
:1040500058F8210000287FF47EAF002001F079FDA0
:10406000A8E7C4F82490206A064213D1FDF735FB77
:10407000EFF3108672B62269E1696069A3690240B4
:104080001A4202BF206A0142FDF71BFB86F310882B
:10409000FDF736FBA561BDE8FF8738B5144600F093
:1040A00006F8274941F8204085F3108831BDEFF329
:1040B000108572B646E030B5EFF3108272B61F4B32
:1040C0001C6904431C6153F83150284343F8310004
:1040D00082F3108830BD506181F310887047EFF390
:1040E000108172B6154AD3691843D061F4E72DE9FF
:1040F000F041124D6E6A0446374616F1010F0EBFAD
:104100000026012000FA06F6D5F820802C6203E094
:104110002146304601F01EFDE8692042F8D06F626A
:10412000EFF3108072B6E96921EA0404EC6180F3D0
:104130001088C5F82080BDE8F081000078300020AC
:10414000EC760020B0FA80F0C0F11F00C0B27047DA
:1041500081B09F490A6802430A60096808400090DC
:10416000009801B07047406800F001007047806817
:10417000704780B5042001F025FC00F01EF90120F5
:1041800000F019F8042014E170B5044601F0E6FCD3
:10419000EFF3108572B68F4E96F8820018B94FF47F
:1041A0008020FFF7D5FF96F88200044386F882400E
:1041B00085F3108870BD82B0EFF3108272B6854926
:1041C00091F8823033EA000081F8820082F310888F
:1041D00008D1B222009202E00098401E00900098A0
:1041E0000028F9D1EFF3108272B691F8820020B95D
:1041F0007748016821F48021016082F3108802B0C1
:10420000FDF7B7BA2DE9F0410546734E70680024FA
:10421000800704D56FF02001716040F201147068CE
:1042200040060AD56FF0400171600C243046FFF75C
:104230009EFF641EFAD14FF48174EFF3108772B6BB
:10424000052001F0BFFB05F180080FE03046FFF7C5
:104250008AFF58B13046FFF78AFF98F8001045F8FA
:10426000210098F80000401C88F8000098F8001021
:104270002029EBDB052001F0A6FB87F31088FFF770
:1042800078FF002088F801002046BDE8F08138B5AD
:10429000504C04F18005002028806860A8702046FA
:1042A000FFF7B0FF6860687810B168680028F6D042
:1042B00031BD70B5474B03F18004EFF3108515E075
:1042C000521E2270D2B253F822200BE072B622782E
:1042D000002AF5D140F20312C6B26260764254F869
:1042E0002620D24385F3108841F8042B0246501E45
:1042F000D2B2002AEAD1BDE87040FDF718BA3749BA
:1043000070B5344D05F1800630780A78002490426B
:1043100016D200F017F8EFF3108072B6746800211F
:10432000716080F3108844B92846FFF76BFF0400E2
:1043300003D1707820B1012400E00CB1FDF7F7F94A
:10434000204670BD80B5032001F03CFB2448026884
:10435000022161F30D3202604FF48020FFF7F8FE76
:1043600000F02BF801688908C907FBD41D4A0260D8
:10437000036843F0804343F020030360016821F0A9
:1043800080410160026822F0804202600168890F6A
:10439000C907FBD44AF6C7220261016841F0040153
:1043A00001604168C907FCD501200A4A82F88100F2
:1043B0000320BDE8024001F006BB0748016821F078
:1043C0000401016070472028BCBF04490870704791
:1043D0008C0C02466476002000080C422C3500202C
:1043E000E40C0246202DF04024214843454B012295
:1043F00018440277704738B50021002001F0BEFB59
:104400000021012001F0BAFB0021022001F0B6FBDF
:104410003D48FEF7EDFD3D48FEF7EAFD3C48FEF75E
:10442000E7FD3C48816800240FF2890541F4005102
:1044300081600268052142F0C00202600022432030
:10444000FDF7C0FB4320FDF7E5FB334A00214FF4A5
:104450000070FFF722FE314A00214FF48060FFF721
:104460001CFE2F4A00214FF40060FFF716FE2421A6
:10447000614324482B460844009001220021001D7E
:10448000FEF794FC641C032CF1D331BD18B1022853
:1044900009D004D3704700214FF4007006E00021DA
:1044A0004FF4806002E000214FF40060FFF703BE8C
:1044B0000000000010B50446207801F0D6FB216A08
:1044C0003231216228B1B1F5FA7F09D32078FFF7A4
:1044D0008BFF201DFEF7D6FC2078BDE81040D5E705
:1044E00010BD24214843074A0023104403623221AF
:1044F000001DFEF7B0BC0020F3E70120F1E7022029
:10450000EFE700002C2F0020020004000400200030
:104510001000000258080246EF4D0008474E000800
:10452000594E00082DE9F043DFF8607991B007F1AA
:104530001400FDF7C7F90FF2B97200211020FFF740
:10454000ACFD0FF25D7200210420FFF7A6FDDFF83D
:1045500040890020C8E91A004FF4FC7208F1680194
:10456000FBF7CEFE0020FBF72FFF4420A8F8180031
:1045700008214FF4A860A8F81A10A8F81C001E2201
:1045800008F12200FB2188F81F2041804022F821F9
:104590008271818020220021C27101706F2208F691
:1045A0005C01A8F82020C8F8001041F648524FF4EA
:1045B0008B514244C8F81410C8F81020FC21022383
:1045C00008F16802A8F80E1088F81E30C8F8082014
:1045D000002141F2EC43FB22018108F12C05C8F8CF
:1045E0000430A8F80C202960404601F06DFBDFF88C
:1045F000A468002840F06382002108A80691ADF865
:104600001C1001800FF6D4020121342001F0C1FBFF
:104610000FF6A00100200090D1E9002303A8062195
:10462000C0E9002301A8FCF743FB00203860B880F4
:10463000062201A9384601F0E1FC78BBDFF85808F2
:10464000016811F1010F0CD042683970090A7970C4
:10465000120A4068FA70110A120CB87039717A7136
:104660001CE069460020FEF783FB90B90098017AB0
:1046700000983970417A00987970817A0098B97001
:10468000C17A0098F970017B00983971417B79718A
:1046900004E0062203A93846FCF7FEFA3A46062152
:1046A000002001F076FB00F019FA0FF6100110223D
:1046B000FCF7F2FA00F009FA90E80C5008F1480112
:1046C00008F1480081E80C50102209A908F14C04B7
:1046D000DFF8C89701F092FC68BBD9F80000D9F860
:1046E000041010F1010F18BF11F1010F1CD020713F
:1046F0002279030A2A7763716279030C000E6A77C4
:10470000A371A279AA77E071E8772172207A0A0A68
:1047100020706272607A0A0C090E6070A272A07A30
:10472000A070E172E17006E00DA890E80C5008F16D
:10473000480181E80C5008F148021021182001F0CE
:1047400028FB00F0CBF90FF284711022FCF7A4FAD9
:1047500000F0BBF990E80C5008F1580108F158003E
:1047600081E80C50102209A901F048FC78BBD9F867
:104770000400D9F8081010F1010F18BF11F1010F52
:104780001ED02175227D0B0AC04322736375627DA2
:104790000B0C090E6273A375A27DA273E175E17320
:1047A0002076217E2174C0F3072161766174C0F305
:1047B0000741A176A174C0F30760E076E07406E0DB
:1047C0000DA890E80C5008F1580181E80C5008F150
:1047D00058021021082001F0DCFA1921012001F013
:1047E000DFFA01F085FB0DF11A0007A90190009195
:1047F00006AB11220021012001F031FB40B9BDF8C8
:104800001800BDF81C103080BDF81A007180B0800F
:1048100008F648010091BDF81C10BDF818001123DE
:10482000002201F099FB08A80090BDF81A10BDF80D
:1048300018000223002201F08FFB02220221002037
:1048400001F07CFA0120307201F0E0FA0120082129
:1048500070723173102000217073F172DFF840061E
:1048600001213061B17200213A78DFF83846635C8B
:104870005E181A2E5CDC04EB010C9CF801C0BCF144
:10488000090F2ED0BCF1FF0F4DD1302604EB010EE5
:104890008EF80260002604EB010989F80360022605
:1048A0008EF804608B2689F8056089268EF80660EC
:1048B000002689F807608EF8086089F809607E791B
:1048C0008EF80A603E7989F80B60FE788EF80C60ED
:1048D000BE7889F80D607E7889F80F208EF80E601A
:1048E00021E014F806C0BCF1580F02BF04EB060C1F
:1048F0001CF801ECBEF1580F15D14FEA121E02F060
:104900000F09BEF10A0FACBF0EF1370E0EF1300EDB
:104910000CF801ECB9F10A0FACBF09F1370909F144
:10492000300904F806905918491C89B21A299EDDED
:104930000021102208230491039002910192009318
:10494000002301220121012001F067FADFF844650C
:10495000B07A08B101F09FFA0021ADF81E101922BB
:104960008DF82220ED218DF8231082228DF824204D
:10497000AE218DF82510ED228DF8262021218DF80D
:1049800027104C228DF828209D218DF829104122D6
:104990008DF82A2045218DF82B1022228DF82C200D
:1049A0008E218DF82D1031228DF82E20FE218DF8CC
:1049B0002F1000220DF11E00ADF8302000210590CF
:1049C0000491102202910191BDF818000392022176
:1049D000009116230DF1220201F0A1FADFF8C804BC
:1049E00001680DF10A0329710168090A01F00F013C
:1049F00069710168090CA9710068DFF8B014000E34
:104A0000E8718B2028720A780120A87202F01F0238
:104A10006A728922EA730721002002AAE972A8813A
:104A2000A87301900290009201AA0DF106010DF108
:104A3000050001F06FF9BDF80600BDF80610162359
:104A40002874FF20A874E87428756875A875E8753F
:104A500028766876090A08F1300069740090BDF87C
:104A60001E10BDF81800002201F076FA01F0D6FA07
:104A700000204FF6FF713076F18001F031FB01F03C
:104A8000C2FB00F0C5F800F0ABF821461B2001F096
:104A9000F4F90FF2952200214FF40050FFF7FDFAD0
:104AA000002000900FF2752300224EF6602106F1DF
:104AB0001C00FEF77BF906F11C00FEF790F90020C0
:104AC00086F8340011B0BDE8F083002009A9002267
:104AD0000023844681E80D1068467047002168462F
:104AE000002200238C4680E80E100DA8704778B590
:104AF00087B004466178DFF8AC53DFF89863052986
:104B000004D03E292AD0FF294AD062E0A088F1884B
:104B1000884204D14FF6FF700021F080317600F01A
:104B2000F0F80120287785F82000A088E883A18884
:104B300005F11C00698401F0CCFA00F04DF800F09A
:104B400067F800F04DF829461B2001F096F94EF663
:104B5000602106F11C00FEF77EF93AE0E0780128BA
:104B600010D00A2804D00C2833D100F0CAF830E065
:104B7000307E01280CBF0320022000F037F800F03F
:104B80002BF826E0307E01280CBF0320022000F025
:104B90002DF800F021F806F11C00FEF773F918E07B
:104BA000B4F8030040F20241401A04D0C01E0DD0F8
:104BB000001F06D00DE0F088DFF8E41201F048F99C
:104BC00007E0F088012101F082F902E0F08801F0AD
:104BD00077F9012008B070BD05F1200001F012BB8B
:104BE00008B9042030760A2001F04EB93076B4F8C6
:104BF00005000021F080297785F82010B4F8051011
:104C0000E983B4F80500688405F11C0001F061BA7D
:104C100000200023069005900490039302900190D9
:104C20000090A022802101F0CEB81CB5DFF86442CC
:104C300018B102282AD022D313BDE0880023ADF892
:104C4000043001AA0DF1050101F072F808BB9DF8CE
:104C50000500022804BF9DF80400022805D1E08861
:104C6000002100910123012205E000200090E0884E
:104C700002230222002101F067F850B903E0E08826
:104C8000132101F00FF900F03FF813BDE08801F0A7
:104C900071F913BD00BF0FF27D010020FBF724BCAA
:104CA00038B500200090794D694605F11400FCF7F5
:104CB00035FE0098083001F0C1F9040003D00098D7
:104CC000FFF7A4F804E0009905F11400FCF706FED4
:104CD00005F11400FCF7F9FD20B91CB100210420F6
:104CE000FFF7E9F900211020FFF7E5F931BD0000D9
:104CF00080B501F099FA18B9BDE8014001F0A1BAF8
:104D000001BD0120FFF7EBB90120FFF7F0B90F203B
:104D100001F0A8BA00B1BEE77047000000214FF4CF
:104D20000050FFF7C8B9000018B55A4C87B004F11D
:104D30001C00FEF7A7F801F03FF838B9E0884FF6FD
:104D4000FF71884214BF022000202076002000233B
:104D500006900590049003930290019000904FF408
:104D60007A624FF4C86101F02EF808B90520207668
:104D70000A2001F089F808B04A491B20BDE810401C
:104D800001F07BB87CB50446002000902078912586
:104D90005918042826D13D4E454889B230610B315F
:104DA00006F108036A4689080220FEF789FFE0B988
:104DB0000098D0B104210172617800984172A17805
:104DC000009881720098A278E11C0B3001F068FA1B
:104DD000009906F11400FCF78BFD00210420FFF779
:104DE0006AF901E0022800D10025284676BD18B5F1
:104DF000284C207E87B0022820D050B100F0DCFF84
:104E000038B9E0884FF6FF71884214BF02200020B5
:104E10002076FFF7FDFE08B9042020760A2001F075
:104E200033F820491B2001F028F804F11C0008B0D9
:104E30004EF66021BDE81040FEF70DB808B0002026
:104E4000BDE81040F1E61348017E022918BF01F0C9
:104E500030B8C08801F00AB838B50E4C207E022860
:104E600013D194F834004FF448710A4600281DBF4E
:104E7000002028212822012084F83400E0884FF403
:104E8000FA750095002301F08AF831BD7C8200207C
:104E900000000020007F0020000AF90B0007F90B3A
:104EA00007B20100082F0020004004E00005F90BC4
:104EB0000F4D00086543211E08000000123456788B
:104EC0009ABCDEF0123456789ABCDEF0FEDCBA09E9
:104ED00087654321FEDCBA09876543210300000092
:104EE00000000001010201020100020100020202B1
:104EF00001020101010101020002010002480168F2
:104F000021F002010160704710E000E002480168F2
:104F100041F002010160704710E000E080B5002020
:104F2000009000F031F8B0B9684601F0FFF9009840
:104F300010F1010F08BF4FF0FF3005D0084800689E
:104F40000099884203D2081A00F021F801BD01211E
:104F50000420FEF7C6FD01BD01490860704700004E
:104F6000BC2F0020002200210FF2890038B501F08B
:104F7000DFF91F4D6860012101F01EFA6868012405
:104F800000B10024204632BD19480078704738B57A
:104F90000124174D10F1010F07D080007D21B0FBD7
:104FA000F1F1686801F01AFA28B9012001F04EFA0F
:104FB00008B92C700024204632BD38B501F06EFBD4
:104FC0000B4D2878012408B900240DE0002001F0E1
:104FD0003DFA08B928700024686801F0BFFB022878
:104FE0001CBF686801F0BCFB01F055FB204632BDD8
:104FF00078830020E1E700000C0027004E4A70B5DE
:10500000D169002408423CD100283AD0083010F081
:10501000070F04D000F1080300F00701581A80B30D
:10502000D16881422DD3156801E02A460D46696892
:10503000814202D229680029F7D13F4EB1688D42E2
:105040001FD0296813681160696803F10804091A00
:10505000112905D32A1D11506860284400F049F831
:105060006968F0683369401A984298BF0346F06057
:10507000F069336101436960002129607069401C57
:105080007061204670BD002800D1704710B5083807
:10509000294C4268E3691A420BD0016849B99A4326
:1050A0004260E1685218E26000F023F8A069401CF9
:1050B000A06110BD024610B512F0070F04D0D21D3A
:1050C000D208D200891A4118891808391A480023D1
:1050D000C90802604360C9004B600B608C1A5460C1
:1050E0001160526802618160C2604FF00042C2618B
:1050F00010BD114930B50A4600E01A4613688342D4
:10510000FBD35368D418844203D14068C31853605A
:10511000104643681468C518A54208D189688C42B6
:1051200004D06168CB184360246800E00C4604603A
:10513000824218BF106030BD108200207FB5002869
:10514000044618BF012001F069FBD4E902210520C3
:1051500084F8250052EA01001CBFD4E9043053EA68
:10516000000533D1A069A0B3E3690BB1984230D8F0
:10517000D4E9005355EA030606D0121841F10001A4
:10518000AA1A73EB010124D3216A59B1154A164BAF
:105190001268DB691A4400EB9200C2EB4212104421
:1051A000814216D3E06AA0B103A801F03BFBD4E929
:1051B000040150EA01020FD001F0AEFB0399053162
:1051C000884209D2032084F8250002E09B1A884116
:1051D000C8D2002004B070BD0020202101F0ACFB3B
:1051E000F8E700BFB4300020887A002010B500280E
:1051F000044618BF012001F011FBD4E9240181F01D
:10520000080281F02001024308430121B2FA82F230
:10521000B0FA80F052094009104301F094FBD4E940
:10522000240181F02001084304BFA068002804D0B5
:10523000204601F08DFB002010BD2046BDE8104047
:1052400001F0B6BB80B537480168002241F0040187
:1052500001600068012100F004000090009B09201B
:10526000FCF7B0FC0920FCF7D5FC00220521422008
:10527000FCF7A8FC4220BDE80240FCF7CBBC81B0A3
:1052800000682949884209D12848026842F48052BE
:105290000260006800F480500090009801B07047F0
:1052A00000682149884204D12048026822F48052D3
:1052B0000260704781B01D48016841F4003101600F
:1052C000006800F400300090009801B0704718B5F5
:1052D00093B00446482101A8FBF7EAFC2268144970
:1052E0008A421DD14FF4804001904FF4007111911A
:1052F00001A8FDF753F908B1FBF796FF0D480168C7
:10530000002241F4001101600068042100F4001043
:10531000009000980220FCF755FC0220FCF77AFC74
:1053200014B010BD940C024600300240880C0246B6
:1053300000780046A80C0246F0B5044600201F2560
:10534000CB071FD52B465D1E2BB105F01F0321FA9D
:1053500003F6F707F6D5130007D0082A10D0102A55
:105360000BD0182A0ED1072D0CD2236859619968E9
:1053700021F018010A439A60F0BD082DF5D301E031
:10538000102DF2D30120F0BD37480168374A41F4AF
:1053900070010160364810607047000030B5354933
:1053A000CB693548354A03F00C03082B02D00C2B8F
:1053B00007D04BE010460A68120D02F00102D040FF
:1053C00044E08B6A4C6BC3F302256D1C00EE105A4F
:1053D000C4F30805C4F30664641C6D1C01EE104A96
:1053E00000EE905ADC0607D58C6BC4F3CC0401EEBA
:1053F000904AFBEEE91A01E0DFED1A1A03F003030D
:10540000022B02D0032B03D00AE002EE100A09E0BF
:105410000868000D00F00100C24002EE102A01E011
:105420009FED102AB8EE422AB8EE400AF8EE600A64
:1054300082EE000A70EEA10A20EE200AF8EE410A80
:1054400080EE200ABCEEC00A10EE100A0C4A106072
:10545000096A00BF0BA301F00701595CC840106046
:1054600030BD00000000000088ED00E008ED00E025
:1054700000000008000C02460024F4000048E80187
:10548000B0300020000000000102030438B5444C95
:105490002078A8B900F039F8424D4FF480712846C1
:1054A000FDF7E8FA2846FDF7A2FB002000F080F89F
:1054B0003D4800684FF0FF31081A606001202070FD
:1054C000002032BD10B58CB0044630216846FBF791
:1054D000EFFB00F01AF800200790314A50684FF0B7
:1054E000FF310C1B002105914FF07C524FF480716D
:1054F000241A06920B910194012269462948FDF76E
:1055000009FA00B1FEE70CB010BD80B50122274BAF
:105510001A604FF480712348FDF7ACFA002002BDF9
:10552000214800684FF0FF311D4A081A506070474B
:105530001B48406870471C480068194B59684FF079
:10554000FF32101A401A704715480178012905D119
:10555000154800684FF0FF31081A70470020704767
:1055600003207047810D80024FF47A72002301F00E
:10557000E1BA4FF47A71A1FB0001800A40EA815040
:105580007047FDF7AABC80B500F015F8401CBDE8D7
:1055900002400DE00348FDF75ABB0248FDF75CBB33
:1055A0008083002014800020087800465C78004644
:1055B00002460221EEE70221EFE77047704770478D
:1055C00070477047704700207047FFFFFFFF1F02C2
:1055D000026822F4400211430160704710B543692C
:1055E00001F0040107248C40A34302FA01F119439E
:1055F000416110BDC268920841EA8201C1607047F2
:10560000C06800F0030070478068000F07E0826800
:10561000BD490A4042F0010282607047806800F094
:10562000010070478268B8490A4042F00042826037
:1056300070478068C00F70477CB500210091002042
:1056400000F0C0F9EFF3108472B600F058F9B0BB67
:10565000AE48416D21F4E0414165026842F020020C
:105660000260006800F020000090009AB168A6482F
:10567000014041F08051B1603046FFF7C5FF00287E
:10568000FAD03046FFF7BCFF009000213046FFF70C
:10569000B1FFE868FFF7C6FFEE683046FFF7C9FFC5
:1056A0000028FAD100993046FFF7A4FF00460046D3
:1056B000E868FFF7ACFFE8680068C107FBD584F332
:1056C00010880020BDE8764000F07DB938B5012093
:1056D00000F078F9EFF3108472B68D49CD68284652
:1056E000FFF79CFFF0B1A9688748014041F0020133
:1056F000A960012129602846FFF790FF0128FAD010
:10570000A8680009C007FBD4A96882480140A960C5
:105710002846FFF779FF0128FAD07C48016821F07C
:105720002001016084F310880120BDE8324000F0C0
:105730004AB90000F0B5044689B000200290CDE9D6
:105740000000182103A8FBF7B3FA714EF06800259A
:1057500001F074FA00284FD1F7683846FFF750FF80
:10576000029000213846FFF745FFF068FFF75AFF27
:10577000F7683846FFF75DFF0028FAD102993846EE
:10578000FFF738FF00460046E06804F13C07009050
:105790002169019161690391626B0492A06B5E4A79
:1057A0000590E0690690206A0790606A0890B968E1
:1057B0005A48914208BF4FF4800105D0584A91429F
:1057C0000CBF4FF400010021FFF702FFF068A16851
:1057D000026922F0005211430161694601F096FA14
:1057E00050B9F068216BC26822F400121143C16005
:1057F00003A901F09CFA08B1012534E0F06839787A
:10580000426C520841EA420141647968426C22F0DC
:10581000020211434164A26A0021FFF7DFFEE26A3F
:10582000F0684049FFF7DAFEF168FA68B8688B6AF9
:1058300002F01F024FF00F0C0CFA02FCC0F3836061
:1058400023EA0C0300FA02F21A438A623A69B86842
:105850004B6923EA002302EA0022334802401A433C
:105860004A6121687160284609B0F0BD7CB50446E4
:105870000020ADF8000000F042F8012822D1B06805
:1058800081071FD4B06842071CD4B1681E4801408C
:1058900041F00401B160E96808684207FBD50420C3
:1058A0000860E26832B1042A0FD0082A15D00C2A09
:1058B0001AD021E04FF48050ADF80000096CC1F31C
:1058C0000B0117E0FBF7B0FCE5E74FF48060ADF8A3
:1058D0000000096CC1F309010CE04FF48072ADF8CF
:1058E0000020096CC9B205E04022ADF80020096C27
:1058F00001F03F01ADF80010BDF8000076BD044D89
:10590000EE6830468AE60000E8FFFF7F940C02460E
:10591000A82E0020E8FFFF6F010000800813024658
:10592000002000B404FFFF0300FFFF0300207047C6
:105930000448016841F48071016001684905FCD5A3
:10594000704700BF000C024670477047F0B5DFF8A3
:1059500064600268DFF86830DFF86040DFF85850B4
:10596000B0421CBFB0F1804FA84208D122F07007AE
:105970004A683A43B04218BFB0F1804F04D0A84201
:105980001CBFA042984203D122F44075CA682A4342
:1059900002608A68B042C2620A8882621CBFA0426A
:1059A000984201D109690163416941F001014161F6
:1059B0000020F0BD002C01400004004000440140E4
:1059C0000048014070477047704770477047704704
:1059D00038B5040008BF062511D02079012808BF7A
:1059E00003250CD0FFF7EFFD050008D105488168BD
:1059F0000122491C216022718160FFF797FF284630
:105A000032BD00BFA82E002038B5EFF3108472B667
:105A10000E4A13680D0004D10068012181408B43B8
:105A200004E0012904D1006881400B43002500E017
:105A300008251360180002D1FFF748FE01E0FFF7C8
:105A4000FBFD84F31088284632BD00BFA82E00203D
:105A5000F8B50D4604460021ADF800100220FFF70E
:105A6000B1FF002C14BF002D062649D0207908B9BB
:105A7000042645E02F4F2068B968814200D308B959
:105A800005263DE03968C140C80758BF082637D50C
:105A9000FFF799FD060033D17868216888420CD061
:105AA0002046FFF747FEF968064623488A68024009
:105AB00042F001028A60310039D12046FFF7D6FE5C
:105AC000ADF800001D480288408E40F6E441824255
:105AD00018D1BDF80000E36840F6FF7241435B084F
